:020000040800F2
:10000000700900200D020008670C00089507000821
:10001000630C0008A9050008731800080000000020
:100020000000000000000000000000004D12000869
:10003000AD05000800000000F90C0008611300087D
:1000400027020008270200082702000855100008B0
:1000500027020008270200082702000827020008DC
:1000600027020008270200082702000827020008CC
:1000700027020008270200082702000827020008BC
:1000800027020008270200082702000827020008AC
:10009000270200082702000827020008270200089C
:1000A000270200082702000827020008270200088C
:1000B00027020008F9130008270200082702000899
:1000C000270200082702000827020008270200086C
:1000D000270200085116000827020008270200081E
:1000E000B1050008270200082702000827020008BF
:1000F000270200082702000827020008270200083C
:1001000027020008270200087D14000827020008C3
:10011000270200082702000827020008270200081B
:10012000270200082702000827020008270200080B
:1001300000F002F800F041F80AA090E8000C8244B8
:100140008344AAF10107DA4501D100F036F8AFF295
:10015000090EBAE80F0013F0010F18BFFB1A43F0A5
:1001600001031847AC370000CC370000103A24BF19
:1001700078C878C1FAD8520724BF30C830C144BF0C
:1001800004680C607047000000230024002500264E
:10019000103A28BF78C1FBD8520728BF30C148BFEA
:1001A0000B607047642900F09380002070471FB5F2
:1001B00000F0DFF81FBD10B510BD00F0A1F9114629
:1001C000FFF7F5FF01F0E2FC00F0BFF903B4FFF721
:1001D000F2FF03BC01F04FFB0B49D1F800C04A68A5
:1001E0005CF8043B1068184442F8040B8C4528BFA7
:1001F000A1F1DC0C8A4228BFA1F1DC02C1F800C0E9
:100200004A6020F0004070470403002009488047FE
:1002100009480047FEE7FEE7FEE7FEE7FEE7FEE7E8
:10022000FEE7FEE7FEE7FEE704480549054A064B00
:1002300070470000651300083101000870030020BA
:100240007009002070050020700500207047000034
:100250000FB4044910B503AA029800F023F910BCAA
:100260005DF814FB3C0000202DE9F0410E460446E9
:10027000002020622046E168884730B3252805D059
:10028000D4E901219047206A401CF2E7E16820464A
:1002900000278847050018D0A5F14100192802D889
:1002A00020354FF400673246294620462760FFF785
:1002B00079FF40B1012804D0F61D26F00706083664
:1002C000D8E7361DD6E72846DAE7206ABDE8F08190
:1002D0002DE9F0410646002410687529314616A51F
:1002E00010D0AFF30080002802DA404213A507E0E7
:1002F00031688A0701D512A502E0490704D511A586
:10030000012401E0AFF3008000210A2206F1240756
:1003100009E0B0FBF2FCB0FBF2F302FB1C00303052
:1003200078541846491C0028F3D123462A46304603
:10033000BDE8F04100F05CB8000000002D000000B6
:100340002B000000200000000B4910B5A1F17C0239
:100350000A4CC2E93712372106E000EB104342F89D
:100360002130074B00FB03400B1EA1F10101F4DC1F
:1003700010BD0120E8E70000A4020020E119D666C4
:10038000CD0D010010B5203AC0F00B80B1E8185037
:10039000203AA0E81850B1E81850A0E81850BFF46F
:1003A000F5AF5FEA027C24BFB1E81850A0E818500E
:1003B00044BF18C918C0BDE810405FEA827C24BF62
:1003C00051F8043B40F8043B08BF7047D20728BFF0
:1003D00031F8023B48BF11F8012B28BF20F8023B3F
:1003E00048BF00F8012B704770477047704770474F
:1003F0002DE9F0470D4699469246044600F124083F
:100400000168880604D5E06921F01001216000E050
:100410000120A84201DD471B00E00027A1697A19ED
:1004200002EB0900081AA0612078C00602D4204619
:10043000AFF30080002608E0D4E901211AF8060095
:100440009047206A401C761C20624E45F4DB2078E1
:10045000C0060AD52046AFF3008006E0D4E90121AA
:1004600030209047206A401C2062381EA7F1010707
:10047000F4DC07E0D4E9012118F805009047206A70
:10048000401C2062281EA5F10105F3DC2046AFF3D5
:1004900000802078000602D50220BDE8F087012008
:1004A000FBE70000074B70B50D467B4400F011F8E8
:1004B0000446284600F020F810B14FF0FF3070BD20
:1004C000204670BD3F15000001694A1C0261087892
:1004D000704700B58FB0CDE9013100210591054984
:1004E0007944CDE9031011466846FFF7BDFE0FB011
:1004F00000BD0000E5FFFFFF007B00F080007047BB
:10050000754600F029F8AE4605006946534620F0CE
:100510000700854618B020B5FFF786FEBDE82040ED
:100520004FF000064FF000074FF000084FF0000BAF
:1005300021F00701AC46ACE8C009ACE8C009ACE862
:10054000C009ACE8C0098D4670470446AFF300808F
:100550002046FFF73BFE0000004870470C030020D8
:1005600010B5012000F0EAFB002000F0E7FB10BD11
:1005700008B5014600200090034800900098084408
:1005800000900098008808BD006C004008B500226B
:100590000092044A0092009A02440092009A11606C
:1005A00008BD0000006C004000BFFEE7704700007F
:1005B00000B511488068C0F3802310480068002807
:1005C0000DDD0E480068092809DA0C480078401E45
:1005D00003FA00F00A490968084309490860074816
:1005E0000068401C054908600A2001F069F94FF4D1
:1005F00000600449086000BD001001407400002044
:100600007C000020140401402DE9F0410246002541
:100610000026002000230024002791F803C00CF0DE
:100620000F0591F803C00CF0100CBCF1000F03D0C3
:1006300091F802C04CEA050591F800C0BCF1000F2A
:1006400031D0146800202BE04FF0010C0CFA00F3BD
:10065000B1F800C00CEA03069E4220D183004FF09F
:100660000F0C0CFA03F7BC4305FA03FC4CEA040434
:1006700091F803C0BCF1280F06D14FF0010C0CFA21
:1006800000FCC2F814C00AE091F803C0BCF1480FA6
:1006900005D14FF0010C0CFA00FCC2F810C0401C50
:1006A0000828D1D31460B1F800C0BCF1FF0F34DDCD
:1006B000546800202EE000F1080C4FF0010808FA01
:1006C0000CF3B1F800C00CEA03069E4221D183006E
:1006D0004FF00F0C0CFA03F7BC4305FA03FC4CEA8D
:1006E000040491F803C0BCF1280F05D100F1080CF7
:1006F00008FA0CF8C2F8148091F803C0BCF1480F56
:1007000007D100F1080C4FF0010808FA0CF8C2F804
:100710001080401C0828CED35460BDE8F08102460A
:10072000002093680B400BB1012000E000207047CF
:1007300041617047016170472DE9F04704460D465D
:1007400016461F46DDF82080B44201DCBD4201DDC3
:10075000BDE8F0873B4632462946204600F099F92D
:10076000301B401C84B2781B401C85B20BE0A946AC
:1007700002E0404600F028FA5FEA0900A9F1010111
:100780001FFA81F9F5D12000A4F101018CB2EED15C
:1007900000BFDDE700BFFEE7014601F007021202DD
:1007A000054B18684FF6FF031840044B18431043DD
:1007B000014B1860704700000CED00E00000FA05E6
:1007C0002848806940F01000264988612648406822
:1007D00020F47F40244948600846406840F40840BF
:1007E00048600846C06840F40060C8601D488069E1
:1007F00040F001001B4988611C48006920F47041E9
:100800001A480161006940F4005118480161184814
:10081000006840F400601649086015480C30006814
:1008200040F4006012490C310860952111480170B4
:100830001148006840F480704FF0E021C1F80401D5
:100840000848806940F01000064988610648406801
:1008500020F47060044948600846406840F4006035
:100860004860704700100240001001400000014045
:100870000004014028E400E004E100E0F0B5074690
:100880000C46059D00262A2000F0A4F9201200F055
:100890009BF9E0B200F098F91119491EC1F30F203D
:1008A00000F092F91119491EC8B200F08DF92B2001
:1008B00000F090F9181200F087F9D8B200F084F92E
:1008C000E918491EC1F30F2000F07EF9E918491E0E
:1008D000C8B200F079F92C2000F07CF900BF03E0E9
:1008E000384600F071F9761C02FB05F0B042F7D8EB
:1008F000F0BD000010B55348406940F48070514984
:1009000048610846806940F00800886108468069AF
:1009100040F0200088610846806940F0400088610E
:100920000846806940F4807088614748006820F07C
:100930000F00454908600846006840F00300086061
:10094000424800684249084040490860084600683B
:10095000404908433D490860081F006800F0FF2037
:10096000091F08600846006840F0BB1008603A485C
:1009700000680020384908600846006840F0BB3035
:100980000860081F006820F07040091F08600846D2
:10099000006840F0304008603048406820F4702023
:1009A0002E4948600846406840F4302048600846B8
:1009B000006820F00F0008600846006840F00B0057
:1009C000086000204FF020418861C8612449086018
:1009D0004FF02040806940F480504FF02041886102
:1009E0000846806940F4804088610846806940F08C
:1009F000100088610846C069C8610846C06940F0B7
:100A00000100C8610846C06940F47060C8611448BC
:100A10000068C1F81C0112480068C1F81C010846B2
:100A2000D0F81C0140F44070C1F81C0108468069F0
:100A300040F00100886100F015F801210248FFF73D
:100A400079FE10BD00100240000C0140041401406A
:100A500000F0FF00BB0B00BB041801400020014068
:100A60001C0100A000B5012000F0B4F8112000F036
:100A7000B1F83A2000F0AEF8552000F0A5F8292092
:100A800000F0A8F8362000F0A5F8CA2000F09CF885
:100A900000BD30B504460D462A2000F09BF8201218
:100AA00000F092F8E0B200F08FF8101200F08CF82D
:100AB000D0B200F089F82B2000F08CF8281200F05A
:100AC00083F8E8B200F080F8181200F07DF8D8B290
:100AD00000F07AF82C2000F07DF830BD2DE9F04FC1
:100AE00004460D4616469A46DDF8249010224FF033
:100AF000080B202E01DB7F2E01DDBDE8F08FA6F173
:100B00002000C6B22A2000F065F8201200F05CF840
:100B1000E0B200F059F80BEB0401491EC1F30F20BD
:100B200000F052F80BEB0401491EC8B200F04CF87B
:100B30002B2000F04FF8281200F046F8E8B200F041
:100B400043F85119491EC1F30F2000F03DF8511927
:100B5000491EC8B200F038F82C2000F03BF8002302
:100B600027E04FF000081DE0002715E0154800EBD6
:100B70000610012101EB4701C91A405C40FA08F058
:100B800000F0010018B1504600F01EF802E048469F
:100B900000F01AF8781CC7B25F45E7DB08F10100E6
:100BA00000F0FF0802EBD271B8EB610FDCDB581CE0
:100BB000C3B2D11702EB5171B3EBE10FD1DB00BF30
:100BC0009BE7000088280008014908807047000062
:100BD0000008006C0149088070470000FE07006CA7
:100BE0000F48806940F008000D4988610D48006891
:100BF00020F00F000B4908600846006840F0030031
:100C0000086008481030006840F4807005491031D1
:100C10000860081F006840F48070091F0860704772
:100C200000100240040C01400146CA1701EB927209
:100C30009210A1EB820292B9642091FBF0F200FBCA
:100C4000121050B94FF4C87091FBF0F200FB121073
:100C500008B9012070470020FCE70120FAE70020D6
:100C6000F8E700BFFEE7704770B5002100230F22B0
:100C7000C47804B3154C246804F4E064C4F5E0645B
:100C8000210AC1F10403CA40447804FA03F18478CC
:100C90001440214309010E4C0678A155047804F054
:100CA0001F050124AC4005786D11AD0005F1E0256C
:100CB000C5F8004109E0047804F01F050124AC40A8
:100CC000044D0678761145F8264070BD0CED00E025
:100CD00000E400E080E100E002490143024A1160C3
:100CE000704700000000FA050CED00E001490862C1
:100CF0007047000000000E427047000029B1064A0C
:100D0000D2690243044BDA6104E0034AD2698243A8
:100D1000014BDA61704700000010024029B1064A19
:100D200092690243044B9A6104E0034A9269824348
:100D3000014B9A61704700000010024001490860B1
:100D4000704700004004424230B5002100220024D8
:100D500000232D4D6D6805F00C0121B1042905D04B
:100D6000082923D105E0294D056022E0274D0560C3
:100D70001FE0254D6D6805F47012234D6D6805F474
:100D80008034022505EB92421CB9214D5543056084
:100D90000BE01D4D6D6805F400351DB11C4D55432C
:100DA000056002E0194D5543056002E0174D0560EE
:100DB00000BF00BF144D6D6805F0F0010909154D25
:100DC0006B5C0568DD4045600F4D6D6805F4E061C2
:100DD000090A104D6B5C4568DD4085600A4D6D6801
:100DE00005F46051C90A0B4D6B5C4568DD40C56078
:100DF000054D6D6805F44041890B074D6B5CC56876
:100E0000B5FBF3F5056130BD0010024000127A0019
:100E100000093D00000000201000002000210B4AC6
:100E200011700A4A203A82F82010012802D00428C2
:100E300008D103E00121054A117004E00521034AAD
:100E4000117000E000BF00BF70470000201002409A
:100E500001490860704700003C0442420249096AA7
:100E60000143014A1162704700100240024909889B
:100E70008143014A118070470428004003480088DC
:100E800040F010000149088070470000042800402D
:100E9000034800884FF6EF71084001490880704709
:100EA0000428004070B500260024002500F07AF8E0
:100EB00006463848B6FBF0F437480088A0423CD0DC
:100EC00035490C8040F2B27510E02846FFF7ACFEC1
:100ED00040B1B4F5B77F02D3A4F5B77404E0681C41
:100EE00085B206E0A4F26D14681C85B2B4F5B67F35
:100EF000EBD800BF29488580002516E0274988885F
:100F0000FFF792FE30B1012D04D11D2C01D31D3C01
:100F100009E00CE02248405DA04203D82048405D33
:100F2000241A00E003E0681C85B21C2CE6D200BF46
:100F3000681C1A498871601CC8711648B6FBF0F12C
:100F400000FB11644FF46160B4FBF0F013490870CA
:100F50004FF46160B4FBF0F100FB11403C21B0FBA9
:100F6000F1F00E4948704FF46160B4FBF0F100FB02
:100F700011403C21B0FBF1F201FB120007498870DF
:100F80000B46DA799979988800F028F803490872B5
:100F9000002070BD80510100360000208800002034
:100FA00004390008002103480188001F008841EA35
:100FB000004070471C28004001460020064A128865
:100FC0000A40D0B2044A121F12880A4012B108B176
:100FD000012000E00020704704280040F0B50346DF
:100FE0000C461546642093FBF0F0C6B2642093FBD8
:100FF000F0F700FB1730C1B2132E02DD01F16400DF
:10100000C1B20846CF1701EB977701EBA707BAB239
:10101000072092FBF0F700FB172082B25719601EE1
:10102000DFF82CC01CF80000384482B2CF1701EB67
:101030009777BF10A1EB87071FB9032C01DA501E69
:1010400082B2072092FBF0F700FB1720C0B2F0BD80
:10105000F83800080EB50120FFF7AEFF20B1FFF70A
:1010600021FF0120104908700220FFF7A5FFA0B161
:101070000220FFF7FBFEFFF715FF0C4880780B49B5
:1010800049780A4A1278CDE9002102900748C379CD
:101090008279818806A0FFF7DBF80520FFF7E6FEDE
:1010A00000F0B8F80EBD00003500002088000020D8
:1010B000416C61726D2054696D653A25642D25641B
:1010C0002D25642025643A25643A25640A00000031
:1010D00029B1064A12880243044B1A8004E0034AED
:1010E00012888243014B1A8070470000002800409C
:1010F00008B503208DF8000000208DF801008DF860
:10110000020001208DF803006846FFF7ADFD08BD21
:101110002DE9F05F06460F4690469946DDE90AAB99
:10112000002440F2B270864203DB40F63300864270
:1011300002DD0120BDE8F09F40F2B2750AE02846CA
:10114000FFF772FD10B12048044401E01F48044439
:10115000681C85B2B542F2DB781EC7B2002510E0EC
:101160001B48405D40F2A321484304EBC0143046C5
:10117000FFF75AFD18B1012D01D116480444681C2F
:1011800085B2BD42ECDBA8F1010040F2A321484347
:1011900004EBC014C9EB4910C0EB092004EB0014A8
:1011A000CAEB0A1004EB80045C4401214FF0C050EC
:1011B000FFF7A4FD0120FFF799FD204600F00CF891
:1011C00000F028F80020B5E70085E2018033E10156
:1011D000043900088051010000B50246FFF74EFEB9
:1011E000100C03490880091D0A80FFF751FE00BD5D
:1011F0001828004000B50246FFF740FEC2F3034046
:1012000003490880091D0A80FFF742FE00BD000067
:101210000828004000BF0348008800F02000002894
:10122000F9D0704704280040074800884FF6F7714E
:1012300008400549088000BF0348008800F0080006
:101240000028F9D07047000004280040704710B50E
:1012500000F002F810BD00000CB5002001900090D5
:101260003348006840F480303149086000BF30489E
:10127000006800F4003000900198401C0190009834
:1012800018B90198B0F5A06FF1D12948006800F4B1
:10129000003010B10120009001E000200090009883
:1012A000012843D12348006840F01000214908601C
:1012B0000846006820F0030008600846006840F017
:1012C000020008601A4840681949486008464068AA
:1012D00048600846406840F48060486008464068BE
:1012E00020F47C1048600846406840F4E8104860EC
:1012F0000846006840F08070086000BF0C48006835
:1013000000F000700028F9D00948406820F0030080
:10131000074948600846406840F00200486000BF46
:101320000348406800F00C000828F9D10CBD00000B
:101330000010024000200240042808D14FF0E021B4
:10134000096941F004014FF0E022116107E04FF01C
:10135000E021096921F004014FF0E022116170479A
:101360007047000010B51348006840F001001149B3
:10137000086008464068104908400E494860084621
:1013800000680E4908400B4908600846006820F4D0
:10139000802008600846406820F4FE0048604FF452
:1013A0001F008860FFF753FF4FF00060044908609A
:1013B00010BD0000001002400000FFF8FFFFF6FE25
:1013C00008ED00E070B506464FF4A073F02200214E
:1013D0000846FFF75EFB00240BE0002504E03046E2
:1013E000FFF7F2FB681C85B2B5F5A07FF7DD601C46
:1013F00084B2F12CF1DB70BD10B50121054800F07D
:10140000AFF828B10121034800F098F800F0A6FADF
:1014100010BD0000000400407FB505460C460121C8
:101420000220FFF76BFCA8B2ADF80800A0B2ADF83F
:1014300004000020ADF80A00ADF8060001A90E482E
:1014400000F0B4F8012211460B4800F09AF81D2074
:101450008DF8000000208DF8010003208DF80200B7
:1014600001208DF803006846FFF7FEFB01210248CA
:1014700000F067F87FBD00000004004010B52C4864
:10148000007800F0800000284DD10121294800F0AB
:1014900067F8D8B12648007800F04000012815D13F
:1014A0002348007800F03F003F280AD12048007808
:1014B00040F080001E4908704FF6FF701E490880FA
:1014C00004E01B480078401C1949087002211948A3
:1014D00000F046F838B31648007800F0400078B1C4
:1014E0001348007840F0800011490870114800F05E
:1014F00034F81149088000210E4800F04BF812E042
:1015000000200B4908700C4908800021094800F0B0
:101510004AF80748007840F0400005490870022169
:10152000044800F037F80321024800F007F810BD26
:1015300038000020000C00403A000020CA4302821C
:10154000704721B1028842F00102028004E0028863
:101550004FF6FE731A40028070470146888E70472E
:1015600030B50246002000230024158A05EA010355
:10157000958905EA010413B10CB1012000E00020B7
:1015800030BD1AB183890B43838102E083898B4389
:10159000838170470A460021018C4FF6FD73194084
:1015A0001143018470478184704700000022028843
:1015B0001D4B98420ED01D4B98420BD0B0F1804F7E
:1015C00008D01B4B984205D01A4B984202D01A4BB8
:1015D000984204D14FF68F731A404B881A43174B29
:1015E000984207D0164B984204D04FF6FF431A405A
:1015F000CB881A4302808B8883850B8803850A4B2E
:1016000098420BD0094B984208D00E4B984205D017
:101610000D4B984202D00D4B984201D10B7A0386B4
:101620000123838270470000002C014000340140F8
:101630000004004000080040000C00400010004082
:1016400000140040004001400044014000480140B7
:1016500010B540F225511D4800F04AF810B31B4860
:1016600000F002F9C4B21A48008800F40040C8B97A
:101670001748008800F4804060B10A2C03D0002095
:101680001349088020E01248008840F400401049C7
:10169000088019E00D2C06D10D48008840F48040E8
:1016A0000B49088010E00A480088C0F30D00094982
:1016B0000C5407480088401C0549088008460088EB
:1016C000C72801DD0020088010BD0000003801405F
:1016D000400000209200002021B1828942F4005293
:1016E000828104E082894DF6FF731A40828170473F
:1016F00070B50246002400230025002040F66A163B
:10170000B14200D100BFC1F3421501F01F03012611
:1017100006FA03F3012D02D19689334006E0022D2B
:1017200002D1168A334001E0968A33400C1201261A
:1017300006FA04F41688344013B10CB1012000E01D
:10174000002070BDF0B503460024002600250020CF
:1017500040F66A17B94200D100BF1846C1F34214DF
:1017600001F01F06012707FA06F5012C01D10C3004
:1017700004E0022C01D1103000E014301AB10768E7
:101780002F43076002E00768AF430760F0BD000029
:101790002DE9F04786B005460E460024A24600BF5C
:1017A000A1460027B08900B100BF2F462C8A4CF615
:1017B000FF700440F08804432C82AC894EF6F3108D
:1017C0000440B08831890843718908430443AC81DF
:1017D000AC8A4FF6FF400440B0890443AC8201A8B4
:1017E000FFF7B2FA1F48874202D1DDF810A001E0EE
:1017F000DDF80CA0A88900F4004040B10AEBCA0053
:1018000000EB0A1031684900B0FBF1F807E00AEB81
:10181000CA0000EB0A1031688900B0FBF1F86420BF
:10182000B8FBF0F004012009642101FB1089A889AC
:1018300000F4004040B1322000EBC900B0FBF1F0F1
:1018400000F00700044308E0322000EB0910642197
:10185000B0FBF1F000F00F0004432C8106B0BDE8AE
:10186000F08700000038014001468888C0F3080076
:10187000704700BFFEE7014600BF704708B5012171
:101880004420FFF74BFA0120ADF8000028208DF826
:10189000030069460848FEF7B7FE01210648FEF737
:1018A00047FF1C20ADF8000048208DF80300694672
:1018B0000248FEF7A9FE08BD0008014000180140DB
:1018C000002100E0491C8142FCD3704710B56FF045
:1018D0000400FFF731FD0A4800680A49B0FBF1F047
:1018E000094908700846007800EB4001C1EBC010C0
:1018F0004FF6FF7101EAC0000449088010BD0000E6
:101900001400002000127A002A0000202C00002081
:101910000146114A12884A434FF0E0235A610022DF
:101920009A611A46126942F001021A6100BF4FF033
:10193000E022106900F001021AB100F48032002A9E
:10194000F5D04FF0E022126922F001024FF0E023BF
:101950001A6100229A6170472C00002010B5002007
:1019600000F0B2F81E49087001201E4908700846B0
:101970000078012833D11A480078012808D11A4884
:1019800090F8CA00032803D00420174981F8CA0040
:1019900013480078032808D1134890F8CA00042897
:1019A00003D00320104981F8CA000D4800780228AE
:1019B00008D10D4890F8CA00012803D002200A4936
:1019C00081F8CA0006480078042808D1064890F833
:1019D000CA00022803D00120034981F8CA0010BDC3
:1019E00044000020700000205A01002000BF054A7A
:1019F000128802F04002002AF9D0C2B2014B1B1D2E
:101A00001A8070470038014030B587B00546002481
:101A100027A207CA04AB07C328A207CA01AB07C3A2
:101A20004FF6FF70FFF7CEFC00BF0DE04FF6FF70E2
:101A300001A900900A5D04EBC401463188B200237D
:101A4000B421FFF74BF8641C0B2CEFDB00240EE0F5
:101A50004FF6FF7000902A5D04EB8401AA2303EB8C
:101A6000410188B20023B421FFF738F8641C032C2D
:101A7000EEDB00240DE04FF6FF7004A900900A5D34
:101A800004EBC401503188B200238C21FFF726F803
:101A9000641C0B2CEFDB002404E044F24020FFF731
:101AA00037FF641C0F2CF8DB00F0F6FD07B030BDEB
:101AB00047616D65206F7665723A2800596F7572BF
:101AC0002073636F72653A0010B5044614B10120AB
:101AD0002B4908702A480078002836D0012129486F
:101AE000FEF71DFE01280ED004212748FEF717FE41
:101AF00048B108212448FEF712FE20B110212248E7
:101B0000FEF70DFE08BB0A20FFF702FF00201C496C
:101B1000087001211B48FEF702FE012800D110BD0C
:101B200004211948FEF7FBFD08B90220F7E7082158
:101B30001548FEF7F4FD08B90320F0E7102112481C
:101B4000FEF7EDFDD0B90420E9E701210D48FEF7CD
:101B5000E6FD98B904210C48FEF7E1FD01280DD1FE
:101B600008210948FEF7DBFD012807D110210648AE
:101B7000FEF7D5FD012801D1014908700020CEE70C
:101B800028000020000801400018014038B5FFF788
:101B900075FEFFF79BFE4FF4A060FFF79DF8FFF77F
:101BA0001FF84FF4807014490860FEF7A3FE4FF44D
:101BB000A0700123F022194600904FF6FF70FEF747
:101BC0005DFE41F61F411920FFF726FC00F016F8D4
:101BD000002404E04FF4165000F006FE641C042CB0
:101BE000F8DB0520FEF7D8FDFEF7EAFD00F054FD16
:101BF00000F054F8002038BD140C01401CB5012140
:101C00004FF0C050FFF77AF80120FFF76FF804207B
:101C1000FEF7AEFC45F25001884230D0FEF7A0FC42
:101C20000120FFF7FBF84FF48070FFF717F9012050
:101C3000FFF70EF9FFF7EEFAFFF7F6FA0121084673
:101C4000FFF746FAFFF7E6FAFFF718F947F6FF70D5
:101C5000FFF7D0FAFFF7DEFA38203B210D231E22D2
:101C6000CDE900100A2140F2DF70FFF751FAFFF7CB
:101C70000FF945F250010420FEF788FC07E0FFF75A
:101C8000D3FA01210846FFF723FAFFF7C3FAFFF75B
:101C90002FFAFFF707F900201CBD00002DE9F047DF
:101CA00088B04FF0000830274FF6FF76FEA103C939
:101CB000CDE90601FEA103C9CDE904010A20FE49D0
:101CC00081F8C800012081F8C900042081F8CA0009
:101CD0000020FA490880052088700120F8498870A2
:101CE0007820F5490880A820A1F864007820488071
:101CF000A821F148A0F866100120F249C870F24905
:101D0000C8704FF4A0700123F022194600903046AD
:101D1000FEF7B4FDF6E3ED4800680B2824DBEC4841
:101D2000006870281CD1302F1ADDEA480068B8B965
:101D30004FF4A0700023F0221946009040F2CF101B
:101D4000FEF79CFDE448B0F800906420E24908806A
:101D5000E0480068401CDF4908607F1E40F2CF1653
:101D60004FF40060DD490860DA480068002819DD9A
:101D7000D84801680068401CD64A10601E2911DB53
:101D8000002011460860D449A1F800904FF4A070DB
:101D90000023F022194600904FF6FF70FEF76EFD0B
:101DA0004FF6FF7600240CE0CD4900960A5D04EB67
:101DB000C4010A3188B200230A21FEF78FFE601C9D
:101DC00084B20A2CF0DBFAB204EBC401143188B2FD
:101DD00000230A210096FEF781FE00240CE0C14991
:101DE00000960A5D04EBC401A03188B200230A21E9
:101DF000FEF774FE601C84B2082CF0DB0020B449AE
:101E00000860B2490860AE488078012845D142E0B8
:101E1000B5498878FEF798FAFEF7DEF90A2190FBBB
:101E2000F1F201FB120000EB40003C2101EB8000CD
:101E3000A3490870FEF7D0F90E2190FBF1F201FBE7
:101E4000120000EB4000542101EB80009C494870D7
:101E5000002511E09A480078974931F91510884219
:101E600008D1974841789448643030F91500814290
:101E700000D106E0681C85B28F4890F8C800A842DF
:101E8000E8DC00BF8C4890F8C800A84202D10020CE
:101E90008B49887000E0BBE700BF8A48C078012802
:101EA00058D1B8F11E0F55DD52E08F4880780A21D5
:101EB00090FBF1FA5046FEF747FAFEF78DF90A213A
:101EC00090FBF1F201FB120000EB40003C2101EB22
:101ED00080007C494870FEF77FF90E2190FBF1F2FB
:101EE00001FB120000EB4000542101EB800075491A
:101EF000887000251DE0734840786F4931F915104E
:101F0000884207D16F4881786B48643030F91500FA
:101F100081420BD06B48407869490978884206D1E4
:101F20006848807866494978884200D106E0681C94
:101F300085B2614890F8C800A842DCDC00BF5E486A
:101F400090F8C800A84202D100205E49C87000E0A5
:101F5000ABE700BF5C48C078012858D1B8F1140F36
:101F600055DD52E0604880780F2190FBF1FA504631
:101F7000FEF7EAF9FEF730F90A2190FBF1F201FBD6
:101F8000120000EB40003C2101EB80004E494870FC
:101F9000FEF722F90E2190FBF1F201FB120000EB9B
:101FA0004000542101EB80004749887000251DE066
:101FB00045484078404931F91510884207D14248D8
:101FC00081783D48643030F9150081420BD03E489D
:101FD00040783B490978884206D13B4880783849A7
:101FE0004978884200D106E0681C85B2324890F8F2
:101FF000C800A842DCDC00BF2F4890F8C800A84207
:1020000002D100203049C87000E0ABE700BF2C4887
:102010008078B0B94FF4FC60DFF8A4C000909CF861
:1020200001C00CF10A03DFF898C09CF800C00CF165
:102030000A02DFF88CC09CF801109CF80000FEF743
:102040007BFB2048C078B0B947F6FF70DFF874C05A
:1020500000909CF802C00CF10A03DFF868C09CF8FD
:1020600001C00CF10A02DFF85CC09CF802109CF879
:102070000100FEF761FB1448C078B8BB4FF478400C
:10208000DFF844C000909CF802C00CF10A03DFF8AE
:1020900038C09CF801C00CF10A02DFF82CC09CF893
:1020A00002109CF8010022E06C6966653A000000AD
:1020B00073636F72653A00005A0100204C000020E3
:1020C0004800002050000020540000207400002030
:1020D0007C0000206C000020460000201404014019
:1020E00058000020630000208800002001E0FEF777
:1020F00023FBFE48B0F90000FD490978884252D11F
:10210000FA48B0F96400FA49497888424BD14FF651
:10211000FF70DFF8DCC300909CF801C00CF10A03EB
:10212000DFF8CCC39CF800C00CF10A02DFF8C0C392
:102130009CF801109CF80000FEF7FEFAEB4890F8BE
:10214000C800322806D0E94890F8C800401CE7498A
:1021500081F8C800E7480088401CE6490880084626
:102160000088642190FBF1F201FB12000A2190FB30
:10217000F1F03030C0B28DF80800DE4800886421EC
:1021800090FBF1F201FB12000A2190FBF1F201FB3E
:1021900012003030C0B28DF8090000208DF80A001E
:1021A0000120D349887000240DE004A900960A5D3F
:1021B00004EBC401491D88B200234FF49671FEF769
:1021C0008DFC601C84B2062CEFDBC848B0F900001F
:1021D000C9494978884223D1C448B0F96400C64946
:1021E000897888421CD14FF6FF70DFF80CC300904D
:1021F0009CF802C00CF10A03DFF8FCC29CF801C095
:102200000CF10A02DFF8F0C29CF802109CF8010001
:10221000FEF792FA392F00DA7F1C0120B649C87008
:10222000B248B0F90000B5494978884229D1AF4891
:10223000B0F96400B1498978884222D14FF6FF7025
:10224000DFF8B8C200909CF802C00CF10A03DFF876
:10225000ACC29CF801C00CF10A02DFF8A0C29CF8E5
:1022600002109CF80100FEF767FAA2488078052862
:1022700004DAA0488078401C9E49887001209F495C
:10228000C870002414E002A8005D302800D16CB1B1
:1022900002A900960A5D04EB84013C2303EB410193
:1022A00088B200234FF49671FEF718FC601C84B2CC
:1022B000022CE8DB8F4880780A2190FBF1F201FBC9
:1022C00012003030C0B28DF80C0000208DF80D00E7
:1022D00000240EE00E200090C4EBC400C83081B290
:1022E0004FF4967306224FF47840FEF7C7FA601C4D
:1022F00084B280488078A042ECDC052411E00E20F6
:1023000000907C488078001BC0EBC000EB3081B2AD
:102310004FF4967306224FF6FF70FEF7AFFA601E79
:1023200084B274488078A042E9DB00240DE006A95D
:1023300000960A5D04EBC401993188B200234FF482
:102340009671FEF7CBFB601C84B2052CEFDB67486F
:10235000B0F90000002802DAF020644908806348E0
:10236000B0F90000F02802DD0020604908805F48D5
:10237000B0F96400002804DA4FF49C705B49A1F8BE
:1023800064005A48B0F96400B0F59C7F03DD00207A
:102390005649A1F86400554890F8C800401E84B220
:1023A0000FE0601E514931F8100021F81400601E42
:1023B000643131F810104D48643020F81410601E5C
:1023C00084B2002CEDDC494890F8CA00012806D000
:1023D00002280BD0032810D0042820D116E043484F
:1023E00000880C3000B24149088018E03F4800885E
:1023F0000C3800B23D49088011E03C48B0F8640058
:102400000C3800B23949A1F8640008E03748B0F848
:1024100064000C3000B23549A1F8640000BF00BF71
:1024200000244FE03648006828B347F6FF70DFF815
:10243000BCC00CF1640C00903CF814C00CF10A0C08
:102440001FFA8CF3DFF8A4C03CF814C00CF10A0C9E
:102450001FFA8CF2DFF894C00CF1640C3CF814C045
:102460001FFA8CF1DFF884C03CF814C01FFA8CF01E
:10247000FEF762F924E04FF6E070DFF870C00CF16F
:10248000640C00903CF814C00CF10A0C1FFA8CF399
:10249000DFF858C03CF814C00CF10A0C1FFA8CF29B
:1024A000DFF848C00CF1640C3CF814C01FFA8CF142
:1024B000DFF838C03CF814C01FFA8CF0FEF73CF986
:1024C000601C84B2094890F8C800A042AADC0C48FD
:1024D0000068E0B340F2CF10DFF810C000909CF825
:1024E000C8C0ACF1010CDFF804A00CE05A010020D8
:1024F000480000204C000020500000205400002024
:102500006C000020BAE00AF1640A3AF81CC00CF131
:102510000A0C1FFA8CF3AAF1640C9CF8C8C0ACF149
:10252000010CAAF1640A3AF81CC00CF10A0C1FFA5B
:102530008CF2D4469CF8C8C0ACF1010C0AF1640AD4
:102540003AF81CC01FFA8CF1AAF1640C00E00CE010
:102550009CF8C8C0ACF1010CAAF1640A3AF81CC09E
:102560001FFA8CF0FEF7E8F839E04FF6FF70DFF85D
:1025700018C100909CF8C8C0ACF1010CDFF808A1AC
:102580000AF1640A3AF81CC00CF10A0C1FFA8CF329
:10259000DFF8F4C09CF8C8C0ACF1010CDFF8E8A08B
:1025A0003AF81CC00CF10A0C1FFA8CF2D4469CF8C5
:1025B000C8C0ACF1010C0AF1640A3AF81CC01FFA59
:1025C0008CF1DFF8C4C09CF8C8C0ACF1010CDFF896
:1025D000B8A03AF81CC01FFA8CF0FEF7ADF803243F
:1025E0001BE0294830F914002749B1F9001088424E
:1025F00011D12548643030F914002349B1F9641031
:10260000884208D121488078401E204988704FF4C4
:1026100080701F490860601C84B21B4890F8C80095
:10262000A042DEDC184890F8C90010B11748807845
:1026300058B96420FFF76CF94FF480701449091DF4
:10264000086002A8FFF7E0F91AE012480088FFF7D7
:102650005FF9104800880A2809DDB8F12D0F06D16E
:102660000C4800880A380B4908804FF0000808F130
:1026700001084FF480700649091D0860FFF74BBB45
:1026800000BF08B0BDE8F0875A0100204C000020D0
:10269000100C01404600002010B590B0002443A269
:1026A000D2E900109268CDE90E020D91142242A1E8
:1026B00008A8FDF767FE45A2D2E900109268CDE9AF
:1026C0000602059144A2D2E900109268CDE9030206
:1026D00002914FF48070434908604FF49670FFF701
:1026E00017F94FF6FF70FEF76DFE00BF0DE04FF6D5
:1026F000FF700DA900900A5D04EBC4014B3188B254
:102700000023B421FEF7EAF9641C0A2CEFDB002455
:102710000DE04FF6FF7008A900900A5D04EBC401BC
:102720001E3188B200238C21FEF7D8F9641C122CCC
:10273000EFDB00240DE04FF6FF7005A900900A5D65
:1027400004EBC4010A3188B200230A21FEF7C6F95E
:10275000641C0A2CEFDB00240DE04FF6FF7002A989
:1027600000900A5D04EBC4010A3188B200231E21E7
:10277000FEF7B4F9641C0A2CEFDB00240FE04FF6DF
:10278000FF700090C4F13300C2B200238C21C82036
:10279000FEF7A4F94FF47A70FFF7BAF8641C032C23
:1027A000EDDBFFF77BFA10B010BD000053746172CF
:1027B00074205061676500004E65772067616D6524
:1027C0002073746172742061743A000031313535C0
:1027D0003039353136320000313135353132363627
:1027E00033330000140C014010B586B004460121BB
:1027F00044F20400FEF792FA4FF40070ADF81400B2
:1028000003208DF8160018208DF8170005A91C4824
:10281000FDF7FAFE4FF48060ADF8140004208DF847
:10282000170005A91648FDF7EFFE25208DF80000DA
:1028300003208DF801008DF8020001208DF80300BF
:102840006846FEF711FA01940020ADF80800ADF8D3
:102850000A00ADF80C00ADF810000C20ADF80E0029
:1028600001A90848FEF794FF012240F225510548CE
:10287000FEF768FF01210348FEF72EFF06B010BDEA
:102880000008014000380140000000000000000086
:1028900000000000000000000000000000001FCC4D
:1028A000000C000000000000000008003000600084
:1028B0000800300060000000022003FC1E200220FF
:1028C00003FC1E200220000000000E1811043FFF30
:1028D00010840C78000000000F0010840F3800C036
:1028E000077818840078000000780F8410C4112441
:1028F0000E9800E4008400080800680070000000E2
:10290000000000000000000000000000000007E0E0
:10291000181820044002000000004002200418188B
:1029200007E00000000000000240024001800FF0BC
:1029300001800240024000000080008000800FF80B
:1029400000800080008000000001000D000E0000EB
:1029500000000000000000000000008000800080F7
:1029600000800080008000800000000C000C00004F
:1029700000000000000000000000000600180060D9
:102980000180060018002000000007F0080810046D
:102990001004080807F000000000080408041FFCE9
:1029A000000400040000000000000E0C10141024AD
:1029B000104411840E0C000000000C1810041104C7
:1029C000110412880C700000000000E003200424B1
:1029D00008241FFC0024000000001F98108411042C
:1029E0001104108810700000000007F0088811041E
:1029F000110418880070000000001C00100010FC7A
:102A000013001C001000000000000E381144108458
:102A1000108411440E38000000000700088C104498
:102A20001044088807F00000000000000000030CBC
:102A3000030C00000000000000000000000101067F
:102A400000000000000000000000008001400220A3
:102A500004100808100400000220022002200220B6
:102A600002200220022000000000100408080410C8
:102A7000022001400080000000000E001200100C37
:102A8000106C10800F00000003E00C1813E41424F5
:102A900017C4082807D000000004003C03C41C40F1
:102AA000074000E4001C000410041FFC1104110482
:102AB00011040E880070000003E00C1810041004CC
:102AC000100410081C10000010041FFC1004100457
:102AD0001004080807F0000010041FFC1104110482
:102AE00017C410040818000010041FFC1104110082
:102AF00017C010000800000003E00C1810041004B8
:102B000010441C780040000010041FFC108400805A
:102B1000008010841FFC10040000100410041FFC2F
:102B20001004100400000000000300011001100157
:102B30001FFE10001000000010041FFC1104038091
:102B40001464181C1004000010041FFC100400047E
:102B500000040004000C000010041FFC1F0000FC17
:102B60001F001FFC1004000010041FFC0C040300D5
:102B700000E010181FFC100007F0080810041004F3
:102B80001004080807F0000010041FFC10841080D7
:102B9000108010800F00000007F008181024102487
:102BA000101C080A07F2000010041FFC1104110099
:102BB00011C011300E0C000400000E1C1104108412
:102BC000108410441C3800001800100010041FFC72
:102BD000100410001800000010001FF8100400047A
:102BE000000410041FF8100010001E0011E0001C6B
:102BF000007013801C0010001FC0103C00E01F007C
:102C000000E0103C1FC000001004180C163401C076
:102C100001C01634180C100410001C00130400FC32
:102C200013041C00100000000804101C1064108421
:102C300013041C04101800000000000000007FFEB8
:102C40004002400240020000000030000C000380FF
:102C50000060001C0003000000004002400240022F
:102C60007FFE000000000000000000002000400087
:102C700040004000200000000001000100010001B0
:102C800000010001000100010000400040002000A0
:102C90000000000000000000000000980124014432
:102CA0000144014400FC000410001FFC00880104E2
:102CB000010400880070000000000070008801041A
:102CC0000104010400880000000000700088010475
:102CD000010411081FFC0004000000F80144014435
:102CE0000144014400C800000000010401040FFC7D
:102CF0001104110411001800000000D60129012957
:102D0000012901C90106000010041FFC0084010014
:102D10000100010400FC000400000104190419FC76
:102D20000004000400000000000000030001010195
:102D3000190119FE0000000010041FFC00240040CF
:102D400001B4010C010400000000100410041FFC79
:102D50000004000400000000010401FC0104010063
:102D600001FC0104010000FC010401FC00840100DD
:102D70000100010400FC0004000000F8010401044B
:102D80000104010400F80000010101FF00850104B5
:102D90000104008800700000000000700088010439
:102DA0000104010501FF00010104010401FC00848C
:102DB0000104010001800000000000CC0124012476
:102DC000012401240198000000000100010007F81F
:102DD0000104010400000000010001F800040004E7
:102DE0000004010801FC0004010001800170000CD6
:102DF000001001600180010001F0010C003001C0F1
:102E00000030010C01F0010000000104018C00748D
:102E10000170018C01040000010101810171000EAB
:102E2000001801600180010000000184010C0134E0
:102E300001440184010C00000000000000000000BB
:102E400001003EFC400240020000000000000000C3
:102E5000FFFF0000000000000000400240023EFCB6
:102E60000100000000000000000060008000800001
:102E70004000400020002000000000000000000092
:102E8000000000000000000000001800000000002A
:102E90000003F80000000000001FC0000000000058
:102EA000001F000000000000001E000000000000E5
:102EB000001C0000000000000018000000000000DE
:102EC00000180000000000000018000000000C00C6
:102ED0000018000000000C000018000000000C00AA
:102EE0000018000000000C00001FFFFFFFFFFC00A7
:102EF000001FFFFFFFFFFC00001FFFFFFFFFFC00A4
:102F0000001FFFFFFFFFFC000018000000001C0076
:102F10000018000000000C000018000000000C0069
:102F20000018000000000C00001800000000000065
:102F30000018000000000000001C0000000000005D
:102F4000001C000000000000001F00000000000046
:102F5000001FC000000000000007F000000000009B
:102F60000000380000000000000000000000000029
:102F70000000000000000000000000000000000051
:102F800000000000000000000018000000000C001D
:102F90000018000000000C000018000000000C00E9
:102FA000001C000000001C00001FFFFFFFFFFC00D2
:102FB000001FFFFFFFFFFC00001FFFFFFFFFFC00E3
:102FC000001FFFFFFFFFFC00001C000300001C00AF
:102FD0000018000300000C000018000300000C00A3
:102FE0000018000300000C000018000300000C0093
:102FF0000018000300000C000018000300000C0083
:103000000018000300000C000018000300000C0072
:103010000018000300000C000018000780000C00DE
:103020000018000FE0000C00001C01FFFE000C0067
:10303000001C01FFFE001C00001E000000001C0020
:10304000001F000000003C00001F800000007C000A
:10305000000FC0000000FC000001F0000001F800BB
:10306000000030000007C00000000000000C00005D
:103070000000000000000000000000000000000050
:103080000000000000000000000018000000000028
:103090000003F80000000000001FC0000000000056
:1030A000001F000000000000001E000000000000E3
:1030B000001C0000000000000018000000000000DC
:1030C00000180000000000000018000000000C00C4
:1030D0000018000000000C000018000000000C00A8
:1030E0000018000000000C00001FFFFFFFFFFC00A5
:1030F000001FFFFFFFFFFC00001FFFFFFFFFFC00A2
:10310000001FFFFFFFFFFC000018000000001C0074
:103110000018000000000C000018000000000C0067
:103120000018000000000C00001800000000000063
:103130000018000000000000001C0000000000005B
:10314000001C000000000000001F00000000000044
:10315000001FC000000000000007F0000000000099
:103160000000380000000000000000000000000027
:10317000000000000000000000000000000000004F
:1031800000000000000000000018000000000C001B
:103190000018000000000C000018000000000C00E7
:1031A000001C000000001C00001FFFFFFFFFFC00D0
:1031B000001FFFFFFFFFFC00001FFFFFFFFFFC00E1
:1031C000001FFFFFFFFFFC00001C000300001C00AD
:1031D0000018000300000C000018000300000C00A1
:1031E0000018000300000C0000180003000000009D
:1031F000001800030000000000180003C0000000D9
:1032000000180003F000000000180003FC0000009C
:10321000001C0007FF800000001C00077FE000008A
:10322000000E000E1FFC0000000F001E03FF000038
:10323000000FC07E00FFC0000007FFFC003FF80049
:103240000007FFF80007FC000003FFF00001FC008E
:103250000001FFE000003C0000007F8000001C0037
:103260000000000000000C000000000000000C0046
:103270000000000000000C00000000000000000042
:10328000000000000000000000000000000000003E
:10329000000000000000000000000000000000002E
:1032A00000000000000000000018000000000C00FA
:1032B0000018000000000C000018000000000C00C6
:1032C0000018000000000C000018000000000C00B6
:1032D0000018000000000C000018000000000C00A6
:1032E0000018000000001C00001FFFFFFFFFFC0093
:1032F000001FFFFFFFFFFC00001FFFFFFFFFFC00A0
:10330000001FFFFFFFFFFC00001C000000001C006E
:103310000018000000000C000018000000000C0065
:103320000018000000000C000018000000000C0055
:103330000018000000000C000018000000000C0045
:103340000018000000000C00000000000000000059
:10335000000000000000000000000000000000006D
:10336000000000000000000000000000000000005D
:10337000000000000000000000000000000000004D
:103380000000000000000000000000000038000005
:1033900000003F80003FC0000000FFE00007FE008B
:1033A0000003FFF00001FC000007FFF800007800B8
:1033B000000F81FC00003800000E007C00001800A7
:1033C000001C003E000018000018001E00000C0049
:1033D0000038001F00000C000030000F0000060045
:1033E0000030000F8000060000300007800006005B
:1033F00000300003C000060000300003C0000600DB
:1034000000300003E000060000100001F00006009C
:1034100000180001F0000E0000180000F8000C0079
:10342000000C00007C001C00000E00007E00380034
:10343000000F80003F81F800001FC0001FFFF00058
:10344000003FF0000FFFE0000000780007FF800061
:103450000000000000FE000000000000000000006E
:10346000000000000000000000000000000000005C
:10347000000000000000000000000000020000202A
:103480000200002003FFFFE003FFFFE002008020B6
:103490000200802002008000020080000200800004
:1034A00002008000030180000183000000FE000094
:1034B000007C00000000000000000000020000206E
:1034C0000200002003FFFFE003FFFFE002000020F6
:1034D000020000200000002000000020000000206A
:1034E000000000200000002000000060000000E05C
:1034F0000000030000000000000000200000006049
:10350000000003E000003E200003E020003E200019
:1035100003E020000380200007FC2000003FE000C3
:103520000003FE2000003FE0000001E0000000205A
:103530000000002000000000000000000200000069
:103540000300000003C0000003F80000023E00205A
:10355000020FC0200001FFE000007FE00003802098
:10356000021C002002700000038000000200000026
:103570000200000000000000000000000200002027
:103580000200002003FFFFE003FFFFE00201002034
:1035900002010020020180000201E0000201FC00A3
:1035A00003033F80018607E001FC00E000F80020F3
:1035B000000000200000000000000020000000606B
:1035C000000003E000003E200003E020003E200059
:1035D00003E020000380200007FC2000003FE00003
:1035E0000003FE2000003FE0000001E0000000209A
:1035F0000000002000000000020000200200002067
:1036000003FFFFE00380002003F0002000FC000027
:10361000001F00000007C0000001F00000007C0057
:1036200002001F80020007E003FFFFE0020000002D
:103630000200000000000000000000000200002066
:103640000200002003FFFFE003FFFFE00200C020B4
:103650000201002000078000000FE0000030F800A9
:1036600002603E2003800F20030003E0020000E020
:1036700002000020000000200200002002000020C4
:1036800003FFFFE003FFFFE0020080200200802034
:103690000000800000008000000080000200802008
:1036A0000200802003FFFFE003FFFFE00200002094
:1036B00002000020000000000000000002000020C6
:1036C0000200002003FFFFE003FFFFE002010020F3
:1036D000020100200201002002010020020100205E
:1036E00002038020020FE0200300006003C000E01E
:1036F0000060030000000000000000000200002045
:103700000200002003FFFFE003FFFFE002000020B3
:103710000200002000000020000000200000002027
:10372000000000200000002000000060000000E019
:103730000000030000000000000000000200002064
:103740000200002003FFFFE003FFFFE002008020F3
:103750000200802002008000020080000200800041
:1037600002008000030180000183000000FE0000D1
:10377000007C0000000000000000800000008000CD
:103780000000800000008000000080000000800039
:103790000000800000008000000080000000800029
:1037A0000000800000008000000080000000800019
:1037B0000000800000008000000080000000800009
:1037C00000008000000080000000800000008000F9
:1037D00000008000000080000000800000008000E9
:1037E00000008000000080000000800000008000D9
:1037F00000008000000080000000000000000000C9
:1038000004000010020000200100004000C0018000
:10381000006003000030060000180C00000C1800C7
:1038200000063000000360000001C00000008000BE
:103830000000000000000000000000000000000088
:10384000000080000001C00000036000000630009E
:10385000000C180000180C00003006000060030087
:1038600000C00180010000400200002004000010A0
:103870000000000000000000000080000000800048
:103880000000800000008000000080000000800038
:103890000000800000008000000080000000800028
:1038A0000000800000008000000080000000800018
:1038B0000000800000008000000080000000800008
:1038C00000008000000080000000800000008000F8
:1038D00000008000000080000000800000008000E8
:1038E00000008000000080000000800000008000D8
:1038F00000008000000080000003030601040602AF
:10390000050003051F1C1F1E1F1E1F1F1E1F1E1F3D
:103910003039000800000020880000006C01000819
:10392000B839000888000020E80800008801000875
:103930000000000001020304010203040607080955
:103940000204060800A24A04000000000000000073
:10395000010203040607080901000000000000003E
:103960000000000000000000000000000000000057
:1039700000000000000064000000000000000000E3
:103980000000000000000000536C6F772049746550
:103990006D3A0070726573732030210000000000E2
:1039A0000000000000000000000000000000000017
:0839B00000000000000000000F
:040000050800020DE0
:00000001FF
