:020000040800F2
:10000000380900200D020008270B00083B070008F4
:10001000230B0008A90500083317000800000000A2
:100020000000000000000000000000000D110008AA
:10003000AD05000800000000B90B000821120008FF
:10004000270200082702000827020008150F0008F1
:1000500027020008270200082702000827020008DC
:1000600027020008270200082702000827020008CC
:1000700027020008270200082702000827020008BC
:1000800027020008270200082702000827020008AC
:10009000270200082702000827020008270200089C
:1000A000270200082702000827020008270200088C
:1000B00027020008B91200082702000827020008DA
:1000C000270200082702000827020008270200086C
:1000D000270200081115000827020008270200085F
:1000E000270200082702000827020008270200084C
:1000F000270200082702000827020008270200083C
:1001000027020008270200083D1300082702000804
:10011000270200082702000827020008270200081B
:10012000270200082702000827020008270200080B
:1001300000F002F800F041F80AA090E8000C8244B8
:100140008344AAF10107DA4501D100F036F8AFF295
:10015000090EBAE80F0013F0010F18BFFB1A43F0A5
:1001600001031847E025000000260000103A24BFD4
:1001700078C878C1FAD8520724BF30C830C144BF0C
:1001800004680C607047000000230024002500264E
:10019000103A28BF78C1FBD8520728BF30C148BFEA
:1001A0000B607047642900F09380002070471FB5F2
:1001B00000F0DFF81FBD10B510BD00F0A1F9114629
:1001C000FFF7F5FF01F03CFC00F0BFF903B4FFF7C7
:1001D000F2FF03BC01F0AFFA0B49D1F800C04A6846
:1001E0005CF8043B1068184442F8040B8C4528BFA7
:1001F000A1F1DC0C8A4228BFA1F1DC02C1F800C0E9
:100200004A6020F000407047CC0200200948804737
:1002100009480047FEE7FEE7FEE7FEE7FEE7FEE7E8
:10022000FEE7FEE7FEE7FEE704480549054A064B00
:100230007047000025120008310100083803002033
:1002400038090020380500203805002070470000DC
:100250000FB4044910B503AA029800F023F910BCAA
:100260005DF814FB3C0000202DE9F0410E460446E9
:10027000002020622046E168884730B3252805D059
:10028000D4E901219047206A401CF2E7E16820464A
:1002900000278847050018D0A5F14100192802D889
:1002A00020354FF400673246294620462760FFF785
:1002B00079FF40B1012804D0F61D26F00706083664
:1002C000D8E7361DD6E72846DAE7206ABDE8F08190
:1002D0002DE9F0410646002410687529314616A51F
:1002E00010D0AFF30080002802DA404213A507E0E7
:1002F00031688A0701D512A502E0490704D511A586
:10030000012401E0AFF3008000210A2206F1240756
:1003100009E0B0FBF2FCB0FBF2F302FB1C00303052
:1003200078541846491C0028F3D123462A46304603
:10033000BDE8F04100F05CB8000000002D000000B6
:100340002B000000200000000B4910B5A1F17C0239
:100350000A4CC2E93712372106E000EB104342F89D
:100360002130074B00FB03400B1EA1F10101F4DC1F
:1003700010BD0120E8E700006C020020E119D666FC
:10038000CD0D010010B5203AC0F00B80B1E8185037
:10039000203AA0E81850B1E81850A0E81850BFF46F
:1003A000F5AF5FEA027C24BFB1E81850A0E818500E
:1003B00044BF18C918C0BDE810405FEA827C24BF62
:1003C00051F8043B40F8043B08BF7047D20728BFF0
:1003D00031F8023B48BF11F8012B28BF20F8023B3F
:1003E00048BF00F8012B704770477047704770474F
:1003F0002DE9F0470D4699469246044600F124083F
:100400000168880604D5E06921F01001216000E050
:100410000120A84201DD471B00E00027A1697A19ED
:1004200002EB0900081AA0612078C00602D4204619
:10043000AFF30080002608E0D4E901211AF8060095
:100440009047206A401C761C20624E45F4DB2078E1
:10045000C0060AD52046AFF3008006E0D4E90121AA
:1004600030209047206A401C2062381EA7F1010707
:10047000F4DC07E0D4E9012118F805009047206A70
:10048000401C2062281EA5F10105F3DC2046AFF3D5
:1004900000802078000602D50220BDE8F087012008
:1004A000FBE70000074B70B50D467B4400F011F8E8
:1004B0000446284600F020F810B14FF0FF3070BD20
:1004C000204670BDF313000001694A1C02610878E0
:1004D000704700B58FB0CDE9013100210591054984
:1004E0007944CDE9031011466846FFF7BDFE0FB011
:1004F00000BD0000E5FFFFFF007B00F080007047BB
:10050000754600F029F8AE4605006946534620F0CE
:100510000700854618B020B5FFF786FEBDE82040ED
:100520004FF000064FF000074FF000084FF0000BAF
:1005300021F00701AC46ACE8C009ACE8C009ACE862
:10054000C009ACE8C0098D4670470446AFF300808F
:100550002046FFF73BFE000000487047D402002011
:1005600010B5012000F04AFB002000F047FB10BD51
:1005700008B5014600200090034800900098084408
:1005800000900098008808BD006C004008B500226B
:100590000092044A0092009A02440092009A11606C
:1005A00008BD0000006C004000BFFEE770472DE969
:1005B000F0410246002500260020002300240027E9
:1005C00091F803C00CF00F0591F803C00CF0100C6B
:1005D000BCF1000F03D091F802C04CEA050591F878
:1005E00000C0BCF1000F31D0146800202BE04FF0A8
:1005F000010C0CFA00F3B1F800C00CEA03069E42AD
:1006000020D183004FF00F0C0CFA03F7BC4305FA1E
:1006100003FC4CEA040491F803C0BCF1280F06D196
:100620004FF0010C0CFA00FCC2F814C00AE091F87B
:1006300003C0BCF1480F05D14FF0010C0CFA00FCCF
:10064000C2F810C0401C0828D1D31460B1F800C013
:10065000BCF1FF0F34DD546800202EE000F1080CDF
:100660004FF0010808FA0CF3B1F800C00CEA0306D9
:100670009E4221D183004FF00F0C0CFA03F7BC43CC
:1006800005FA03FC4CEA040491F803C0BCF1280FFE
:1006900005D100F1080C08FA0CF8C2F8148091F8A2
:1006A00003C0BCF1480F07D100F1080C4FF001085E
:1006B00008FA0CF8C2F81080401C0828CED3546009
:1006C000BDE8F0810246002093680B400BB1012089
:1006D00000E00020704741617047016170472DE9DB
:1006E000F04704460D4616461F46DDF82080B4420A
:1006F00001DCBD4201DDBDE8F0873B4632462946BC
:10070000204600F026F9301B401C84B2781B401CA8
:1007100085B20BE0A94602E0404600F0B5F95FEA79
:100720000900A9F101011FFA81F9F5D12000A4F116
:1007300001018CB2EED100BFDDE700BFFEE7F0B5EE
:1007400007460C46059D00262A2000F0A3F920123A
:1007500000F09AF9E0B200F097F91119491EC1F3BF
:100760000F2000F091F91119491EC8B200F08CF960
:100770002B2000F08FF9181200F086F9D8B200F0A3
:1007800083F9E918491EC1F30F2000F07DF9E9183B
:10079000491EC8B200F078F92C2000F07BF900BFA8
:1007A00003E0384600F070F9761C02FB05F0B04219
:1007B000F7D8F0BD10B55348406940F480705149F6
:1007C00048610846806940F00800886108468069F1
:1007D00040F0200088610846806940F04000886150
:1007E0000846806940F4807088614748006820F0BE
:1007F0000F00454908600846006840F003000860A3
:10080000424800684249084040490860084600687C
:10081000404908433D490860081F006800F0FF2078
:10082000091F08600846006840F0BB1008603A489D
:1008300000680020384908600846006840F0BB3076
:100840000860081F006820F07040091F0860084613
:10085000006840F0304008603048406820F4702064
:100860002E4948600846406840F4302048600846F9
:10087000006820F00F0008600846006840F00B0098
:10088000086000204FF020418861C8612449086059
:100890004FF02040806940F480504FF02041886143
:1008A0000846806940F4804088610846806940F0CD
:1008B000100088610846C069C8610846C06940F0F8
:1008C0000100C8610846C06940F47060C8611448FE
:1008D0000068C1F81C0112480068C1F81C010846F4
:1008E000D0F81C0140F44070C1F81C010846806932
:1008F00040F00100886100F015F801210248FFF77F
:10090000ECFE10BD00100240000C01400414014038
:1009100000F0FF00BB0B00BB0418014000200140A9
:100920001C0100A000B5012000F0B4F8112000F077
:10093000B1F83A2000F0AEF8552000F0A5F82920D3
:1009400000F0A8F8362000F0A5F8CA2000F09CF8C6
:1009500000BD30B504460D462A2000F09BF8201259
:1009600000F092F8E0B200F08FF8101200F08CF86E
:10097000D0B200F089F82B2000F08CF8281200F09B
:1009800083F8E8B200F080F8181200F07DF8D8B2D1
:1009900000F07AF82C2000F07DF830BD2DE9F04F02
:1009A00004460D4616469A46DDF8249010224FF074
:1009B000080B202E01DB7F2E01DDBDE8F08FA6F1B4
:1009C0002000C6B22A2000F065F8201200F05CF882
:1009D000E0B200F059F80BEB0401491EC1F30F20FF
:1009E00000F052F80BEB0401491EC8B200F04CF8BD
:1009F0002B2000F04FF8281200F046F8E8B200F083
:100A000043F85119491EC1F30F2000F03DF8511968
:100A1000491EC8B200F038F82C2000F03BF8002343
:100A200027E04FF000081DE0002715E0154800EB17
:100A30000610012101EB4701C91A405C40FA08F099
:100A400000F0010018B1504600F01EF802E04846E0
:100A500000F01AF8781CC7B25F45E7DB08F1010027
:100A600000F0FF0802EBD271B8EB610FDCDB581C21
:100A7000C3B2D11702EB5171B3EBE10FD1DB00BF71
:100A80009BE700003C2100080149088070470000F6
:100A90000008006C0149088070470000FE07006CE8
:100AA0000F48806940F008000D4988610D480068D2
:100AB00020F00F000B4908600846006840F0030072
:100AC000086008481030006840F480700549103113
:100AD0000860081F006840F48070091F08607047B4
:100AE00000100240040C01400146CA1701EB92724B
:100AF0009210A1EB820292B9642091FBF0F200FB0C
:100B0000121050B94FF4C87091FBF0F200FB1210B4
:100B100008B9012070470020FCE70120FAE7002017
:100B2000F8E700BFFEE7704770B5002100230F22F1
:100B3000C47804B3154C246804F4E064C4F5E0649C
:100B4000210AC1F10403CA40447804FA03F184780D
:100B50001440214309010E4C0678A155047804F095
:100B60001F050124AC4005786D11AD0005F1E025AD
:100B7000C5F8004109E0047804F01F050124AC40E9
:100B8000044D0678761145F8264070BD0CED00E066
:100B900000E400E080E100E002490143024A116004
:100BA000704700000000FA050CED00E00149086202
:100BB0007047000000000E427047000029B1064A4D
:100BC000D2690243044BDA6104E0034AD2698243EA
:100BD000014BDA61704700000010024029B1064A5B
:100BE00092690243044B9A6104E0034A926982438A
:100BF000014B9A61704700000010024001490860F3
:100C0000704700004004424230B500210022002419
:100C100000232D4D6D6805F00C0121B1042905D08C
:100C2000082923D105E0294D056022E0274D056004
:100C30001FE0254D6D6805F47012234D6D6805F4B5
:100C40008034022505EB92421CB9214D55430560C5
:100C50000BE01D4D6D6805F400351DB11C4D55436D
:100C6000056002E0194D5543056002E0174D05602F
:100C700000BF00BF144D6D6805F0F0010909154D66
:100C80006B5C0568DD4045600F4D6D6805F4E06103
:100C9000090A104D6B5C4568DD4085600A4D6D6842
:100CA00005F46051C90A0B4D6B5C4568DD40C560B9
:100CB000054D6D6805F44041890B074D6B5CC568B7
:100CC000B5FBF3F5056130BD0010024000127A005B
:100CD00000093D00000000201000002000210B4A08
:100CE00011700A4A203A82F82010012802D0042804
:100CF00008D103E00121054A117004E00521034AEF
:100D0000117000E000BF00BF7047000020100240DB
:100D100001490860704700003C0442420249096AE8
:100D20000143014A116270470010024002490988DC
:100D30008143014A1180704704280040034800881D
:100D400040F010000149088070470000042800406E
:100D5000034800884FF6EF7108400149088070474A
:100D60000428004070B500260024002500F07AF821
:100D700006463848B6FBF0F437480088A0423CD01D
:100D800035490C8040F2B27510E02846FFF7ACFE02
:100D900040B1B4F5B77F02D3A4F5B77404E0681C82
:100DA00085B206E0A4F26D14681C85B2B4F5B67F76
:100DB000EBD800BF29488580002516E027498888A0
:100DC000FFF792FE30B1012D04D11D2C01D31D3C43
:100DD00009E00CE02248405DA04203D82048405D75
:100DE000241A00E003E0681C85B21C2CE6D200BF88
:100DF000681C1A498871601CC8711648B6FBF0F16E
:100E000000FB11644FF46160B4FBF0F0134908700B
:100E10004FF46160B4FBF0F100FB11403C21B0FBEA
:100E2000F1F00E4948704FF46160B4FBF0F100FB43
:100E300011403C21B0FBF1F201FB12000749887020
:100E40000B46DA799979988800F028F803490872F6
:100E5000002070BD805101003600002050000020AD
:100E600038270008002103480188001F008841EA54
:100E7000004070471C28004001460020064A1288A6
:100E80000A40D0B2044A121F12880A4012B108B1B7
:100E9000012000E00020704704280040F0B5034620
:100EA0000C461546642093FBF0F0C6B2642093FB19
:100EB000F0F700FB1730C1B2132E02DD01F1640020
:100EC000C1B20846CF1701EB977701EBA707BAB27B
:100ED000072092FBF0F700FB172082B25719601E23
:100EE000DFF82CC01CF80000384482B2CF1701EBA9
:100EF0009777BF10A1EB87071FB9032C01DA501EAB
:100F000082B2072092FBF0F700FB1720C0B2F0BDC1
:100F10002C2700080EB50120FFF7AEFF20B1FFF728
:100F200021FF0120104908700220FFF7A5FFA0B1A2
:100F30000220FFF7FBFEFFF715FF0C4880780B49F6
:100F400049780A4A1278CDE9002102900748C3790E
:100F50008279818806A0FFF77BF90520FFF7E6FE7E
:100F600000F0B8F80EBD0000350000205000002051
:100F7000416C61726D2054696D653A25642D25645C
:100F80002D25642025643A25643A25640A00000072
:100F900029B1064A12880243044B1A8004E0034A2E
:100FA00012888243014B1A807047000000280040DD
:100FB00008B503208DF8000000208DF801008DF8A1
:100FC000020001208DF803006846FFF7ADFD08BD63
:100FD0002DE9F05F06460F4690469946DDE90AABDB
:100FE000002440F2B270864203DB40F633008642B2
:100FF00002DD0120BDE8F09F40F2B2750AE028460C
:10100000FFF772FD10B12048044401E01F4804447A
:10101000681C85B2B542F2DB781EC7B2002510E02D
:101020001B48405D40F2A321484304EBC014304606
:10103000FFF75AFD18B1012D01D116480444681C70
:1010400085B2BD42ECDBA8F1010040F2A321484388
:1010500004EBC014C9EB4910C0EB092004EB0014E9
:10106000CAEB0A1004EB80045C4401214FF0C0502D
:10107000FFF7A4FD0120FFF799FD204600F00CF8D2
:1010800000F028F80020B5E70085E2018033E10197
:10109000382700088051010000B50246FFF74EFED8
:1010A000100C03490880091D0A80FFF751FE00BD9E
:1010B0001828004000B50246FFF740FEC2F3034087
:1010C00003490880091D0A80FFF742FE00BD0000A9
:1010D0000828004000BF0348008800F020000028D6
:1010E000F9D0704704280040074800884FF6F77190
:1010F00008400549088000BF0348008800F0080048
:101100000028F9D07047000004280040704710B54F
:1011100000F002F810BD00000CB500200190009016
:101120003348006840F480303149086000BF3048DF
:10113000006800F4003000900198401C0190009875
:1011400018B90198B0F5A06FF1D12948006800F4F2
:10115000003010B10120009001E0002000900098C4
:10116000012843D12348006840F01000214908605D
:101170000846006820F0030008600846006840F058
:10118000020008601A4840681949486008464068EB
:1011900048600846406840F48060486008464068FF
:1011A00020F47C1048600846406840F4E81048602D
:1011B0000846006840F08070086000BF0C48006876
:1011C00000F000700028F9D00948406820F00300C2
:1011D000074948600846406840F00200486000BF88
:1011E0000348406800F00C000828F9D10CBD00004D
:1011F0000010024000200240042808D14FF0E021F6
:10120000096941F004014FF0E022116107E04FF05D
:10121000E021096921F004014FF0E02211617047DB
:101220007047000010B51348006840F001001149F4
:10123000086008464068104908400E494860084662
:1012400000680E4908400B4908600846006820F411
:10125000802008600846406820F4FE0048604FF493
:101260001F008860FFF753FF4FF0006004490860DB
:1012700010BD0000001002400000FFF8FFFFF6FE66
:1012800008ED00E070B5064640F23F13EF22002162
:101290000846FFF75EFB00240BE0002504E0304623
:1012A000FFF7F2FB681C85B2B5F5A07FF7DB601C89
:1012B00084B2F02CF1DB70BD10B50121054800F0BF
:1012C000AFF828B10121034800F098F800F0A0FA27
:1012D00010BD0000000400407FB505460C4601210A
:1012E0000220FFF76BFCA8B2ADF80800A0B2ADF881
:1012F00004000020ADF80A00ADF8060001A90E4870
:1013000000F0B4F8012211460B4800F09AF81D20B5
:101310008DF8000000208DF8010003208DF80200F8
:1013200001208DF803006846FFF7FEFB012102480B
:1013300000F067F87FBD00000004004010B52C48A5
:10134000007800F0800000284DD10121294800F0EC
:1013500067F8D8B12648007800F04000012815D180
:101360002348007800F03F003F280AD12048007849
:1013700040F080001E4908704FF6FF701E4908803B
:1013800004E01B480078401C1949087002211948E4
:1013900000F046F838B31648007800F0400078B105
:1013A0001348007840F0800011490870114800F09F
:1013B00034F81149088000210E4800F04BF812E083
:1013C00000200B4908700C4908800021094800F0F2
:1013D0004AF80748007840F04000054908700221AB
:1013E000044800F037F80321024800F007F810BD68
:1013F00038000020000C00403A000020CA4302825E
:10140000704721B1028842F00102028004E00288A4
:101410004FF6FE731A40028070470146888E70476F
:1014200030B50246002000230024158A05EA010396
:10143000958905EA010413B10CB1012000E00020F8
:1014400030BD1AB183890B43838102E083898B43CA
:10145000838170470A460021018C4FF6FD731940C5
:101460001143018470478184704700000022028884
:101470001D4B98420ED01D4B98420BD0B0F1804FBF
:1014800008D01B4B984205D01A4B984202D01A4BF9
:10149000984204D14FF68F731A404B881A43174B6A
:1014A000984207D0164B984204D04FF6FF431A409B
:1014B000CB881A4302808B8883850B8803850A4B6F
:1014C00098420BD0094B984208D00E4B984205D059
:1014D0000D4B984202D00D4B984201D10B7A0386F6
:1014E0000123838270470000002C0140003401403A
:1014F0000004004000080040000C004000100040C4
:1015000000140040004001400044014000480140F8
:1015100010B540F225511D4800F04AF810B31B48A1
:1015200000F002F9C4B21A48008800F40040C8B9BB
:101530001748008800F4804060B10A2C03D00020D6
:101540001349088020E01248008840F40040104908
:10155000088019E00D2C06D10D48008840F4804029
:101560000B49088010E00A480088C0F30D000949C3
:101570000C5407480088401C05490880084600882C
:10158000C72801DD0020088010BD000000380140A0
:10159000400000205A00002021B1828942F400520C
:1015A000828104E082894DF6FF731A408281704780
:1015B00070B50246002400230025002040F66A167C
:1015C000B14200D100BFC1F3421501F01F03012653
:1015D00006FA03F3012D02D19689334006E0022D6D
:1015E00002D1168A334001E0968A33400C1201265C
:1015F00006FA04F41688344013B10CB1012000E05F
:10160000002070BDF0B50346002400260025002010
:1016100040F66A17B94200D100BF1846C1F3421420
:1016200001F01F06012707FA06F5012C01D10C3045
:1016300004E0022C01D1103000E014301AB1076828
:101640002F43076002E00768AF430760F0BD00006A
:101650002DE9F04786B005460E460024A24600BF9D
:10166000A1460027B08900B100BF2F462C8A4CF656
:10167000FF700440F08804432C82AC894EF6F310CE
:101680000440B08831890843718908430443AC8120
:10169000AC8A4FF6FF400440B0890443AC8201A8F5
:1016A000FFF7B2FA1F48874202D1DDF810A001E02F
:1016B000DDF80CA0A88900F4004040B10AEBCA0094
:1016C00000EB0A1031684900B0FBF1F807E00AEBC3
:1016D000CA0000EB0A1031688900B0FBF1F8642001
:1016E000B8FBF0F004012009642101FB1089A889EE
:1016F00000F4004040B1322000EBC900B0FBF1F033
:1017000000F00700044308E0322000EB09106421D8
:10171000B0FBF1F000F00F0004432C8106B0BDE8EF
:10172000F08700000038014001468888C0F30800B7
:10173000704700BFFEE7014600BF704708B50121B2
:101740004420FFF74BFA0120ADF8000028208DF867
:10175000030069460848FEF72AFF01210648FEF704
:10176000BAFF1C20ADF8000048208DF80300694640
:101770000248FEF71CFF08BD0008014000180140A8
:1017800010B56FF00400FFF737FD0A4800680A49FA
:10179000B0FBF1F0094908700846007800EB400101
:1017A000C1EBC0104FF6FF7101EAC0000449088088
:1017B00010BD00001400002000127A002A00002052
:1017C0002C0000200146114A12884A434FF0E023C2
:1017D0005A6100229A611A46126942F001021A61A6
:1017E00000BF4FF0E022106900F001021AB100F4CE
:1017F0008032002AF5D04FF0E022126922F0010277
:101800004FF0E0231A6100229A6170472C000020FB
:1018100010B5002000F0B2F81E49087001201E49E2
:10182000087008460078012833D11A48007801284A
:1018300008D11A4890F8CA00032803D00420174999
:1018400081F8CA0013480078032808D1134890F89B
:10185000CA00042803D00320104981F8CA000D48AB
:101860000078022808D10D4890F8CA00012803D05A
:1018700002200A4981F8CA0006480078042808D1E5
:10188000064890F8CA00022803D00120034981F8D5
:10189000CA0010BD420000204C00002022010020A0
:1018A00000BF054A128802F04002002AF9D0C2B2F5
:1018B000014B1B1D1A8070470038014030B587B0BE
:1018C0000546002427A207CA04AB07C328A207CAFB
:1018D00001AB07C34FF6FF70FFF7D4FC00BF0DE06C
:1018E0004FF6FF7001A900900A5D04EBC401463178
:1018F00088B20023B421FFF751F8641C0B2CEFDBF6
:1019000000240EE04FF6FF7000902A5D04EB840186
:10191000AA2303EB410188B20023B421FFF73EF86C
:10192000641C032CEEDB00240DE04FF6FF7004A9CD
:1019300000900A5D04EBC401503188B200238C2171
:10194000FFF72CF8641C0B2CEFDB002404E044F2BE
:101950004020FFF737FF641C0F2CF8DB00F0F6FA8D
:1019600007B030BD47616D65206F7665723A28001B
:10197000596F75722073636F72653A0010B5044633
:1019800014B101202B4908702A480078002836D06D
:1019900001212948FEF796FE01280ED00421274890
:1019A000FEF790FE48B108212448FEF78BFE20B1D7
:1019B00010212248FEF786FE08BB0A20FFF702FF2F
:1019C00000201C49087001211B48FEF77BFE0128FE
:1019D00000D110BD04211948FEF774FE08B9022099
:1019E000F7E708211548FEF76DFE08B90320F0E778
:1019F00010211248FEF766FED0B90420E9E7012164
:101A00000D48FEF75FFE98B904210C48FEF75AFE18
:101A100001280DD108210948FEF754FE012807D1FD
:101A200010210648FEF74EFE012801D10149087039
:101A30000020CEE7280000200008014000180140E7
:101A400008B5FFF77BFEFFF79BFE4FF4A060FFF7A2
:101A5000A3F8FFF725F84FF480700F490860FEF7F0
:101A6000A9FE4FF4A0700123F022194600904FF612
:101A7000FF70FEF764FE41F61F411920FFF72CFCB2
:101A800000F00CF84FF4165000F008FB00F05EFA7E
:101A900000F054F8002008BD140C01401CB50121D1
:101AA0004FF0C050FFF78AF80120FFF77FF80420BD
:101AB000FEF75EFD45F25001884230D0FEF750FD42
:101AC0000120FFF70BF94FF48070FFF727F9012091
:101AD000FFF71EF9FFF7FEFAFFF706FB01210846A4
:101AE000FFF756FAFFF7F6FAFFF728F947F6FF7007
:101AF000FFF7E0FAFFF7EEFA38203B210D231E2214
:101B0000CDE900100A2140F2DF70FFF761FAFFF71C
:101B10001FF945F250010420FEF738FD07E0FFF7FA
:101B2000E3FA01210846FFF733FAFFF7D3FAFFF78C
:101B30003FFAFFF717F900201CBD0000FEB5002694
:101B40000A20FB4981F8C800012081F8C90004205F
:101B500081F8CA000020F74908800520887001201C
:101B6000F54988707820F2490880A820A1F864001F
:101B700078204880A821EE48A0F866104FF4A070A5
:101B80000123F022194600904FF6FF70FEF7D7FDB3
:101B9000CDE1E9488078012845D142E0E7498878DD
:101BA000FEF7D2FBFEF718FB0A2190FBF1F201FBD6
:101BB000120000EB40003C2101EB8000DE49087080
:101BC000FEF70AFB0E2190FBF1F201FB120000EB85
:101BD0004000542101EB8000D7494870002511E0F6
:101BE000D5480078D24931F91510884208D1D24839
:101BF0004178CF48643030F91500814200D106E0C9
:101C0000681C85B2CA4890F8C800A842E8DC00BF4A
:101C1000C74890F8C800A84202D10020C649887081
:101C200000E0BBE700BFC448807878B947F6FF7092
:101C3000C14F00907F7807F10A03BF4F3F7807F14B
:101C40000A02BD4F79783878FEF749FDB848B0F9F7
:101C50000000B949097888424BD1B548B0F9640011
:101C6000B5494978884244D14FF6FF70B24F009091
:101C70007F7807F10A03B04F3F7807F10A02AE4FB1
:101C800079783878FEF72BFDA94890F8C8003228FB
:101C900006D0A74890F8C800401CA54981F8C800A4
:101CA000A4480088401CA349088008460088642195
:101CB00090FBF1F201FB12000A2190FBF1F03030B1
:101CC000C0B28DF804009B480088642190FBF1F2BB
:101CD00001FB12000A2190FBF1F201FB12003030EF
:101CE000C0B28DF8050000208DF806000120924951
:101CF0008870002414E001A8005D302800D16CB188
:101D00004FF6FF7001A900900A5D04EB840100EA20
:101D1000410000234FF49671FEF740FE601C84B230
:101D2000022CE8DB824890F8C800401E84B20FE025
:101D3000601E7F4931F8100021F81400601E6431E4
:101D400031F810107A48643020F81410601E84B204
:101D5000002CEDDC764890F8CA00012806D0022855
:101D60000BD0032810D0042820D116E0704800883A
:101D70000C3000B26E49088018E06D4800880C38BD
:101D800000B26B49088011E06948B0F864000C3873
:101D900000B26749A1F8640008E06548B0F8640043
:101DA0000C3000B26249A1F8640000BF00BF0024FB
:101DB0001AE04FF6E0705E4F6437009037F8147009
:101DC0000A37BBB25A4F37F814700A37BAB2584FB5
:101DD000643737F81470B9B2554F37F81470B8B289
:101DE000FEF77DFC601C84B2514890F8C800A04208
:101DF000DFDC4FF6FF704E4F009097F8C8707F1EE3
:101E0000DFF82CC10CF1640C3CF817700A37BBB238
:101E1000474F97F8C8707F1EDFF814C13CF8177061
:101E20000A37BAB2674697F8C8707F1E0CF1640C87
:101E30003CF81770B9B23E4F97F8C8707F1EDFF8B4
:101E4000F0C03CF81770B8B2FEF749FC3848B0F95A
:101E5000000000280FDB3648B0F90000DC280ADC5F
:101E60003348B0F96400002805DB3148B0F964005C
:101E7000B0F5967F03DD00202D4981F8C9000324C9
:101E80001BE02B4830F914002949B1F900108842B1
:101E900011D12748643030F914002549B1F9641094
:101EA000884208D123488078401E224988704FF428
:101EB000807023490860601C84B21D4890F8C800F7
:101EC000A042DEDC1A4890F8C90010B119488078A9
:101ED00058B96420FFF776FC4FF480701849091D4B
:101EE000086001A8FFF7EAFC2EE0124880780A217A
:101EF00090FBF1F201FB12003030C0B28DF8080007
:101F000000208DF809004FF6FF7000909DF8082022
:101F100000234FF49671DC20FEF740FD094800785D
:101F2000FFF750FC4FF480700549091D086030E64A
:101F30002201002048000020450000205000002021
:101F4000100C01404400002000BFFEBD10B590B051
:101F5000002443A2D2E900109268CDE90E020D914F
:101F6000142242A108A8FEF70DFA45A2D2E90010FA
:101F70009268CDE90602059144A2D2E90010926868
:101F8000CDE9030202914FF48070434908604FF499
:101F90009670FFF717FC4FF6FF70FFF773F900BF5D
:101FA0000DE04FF6FF700DA900900A5D04EBC4012F
:101FB0004B3188B20023B421FEF7F0FC641C0A2CDC
:101FC000EFDB00240DE04FF6FF7008A900900A5DDA
:101FD00004EBC4011E3188B200238C21FEF7DEFC25
:101FE000641C122CEFDB00240DE04FF6FF7005A9F6
:101FF00000900A5D04EBC4010A3188B200230A2173
:10200000FEF7CCFC641C0A2CEFDB00240DE04FF63D
:10201000FF7002A900900A5D04EBC4010A3188B286
:1020200000231E21FEF7BAFC641C0A2CEFDB0024FF
:102030000FE04FF6FF700090C4F13300C2B20023EE
:102040008C21C820FEF7AAFC4FF47A70FFF7BAFB88
:10205000641C032CEDDBFFF771FD10B010BD000018
:102060005374617274205061676500004E6577207B
:1020700067616D652073746172742061743A000049
:102080003131353530393531363200003131353581
:102090003132363633330000140C014010B586B0AF
:1020A0000446012144F20400FEF798FD4FF400704D
:1020B000ADF8140003208DF8160018208DF81700D5
:1020C00005A91C48FEF773FA4FF48060ADF81400C0
:1020D00004208DF8170005A91648FEF768FA252098
:1020E0008DF8000003208DF801008DF8020001201A
:1020F0008DF803006846FEF717FD01940020ADF847
:102100000800ADF80A00ADF80C00ADF810000C2086
:10211000ADF80E0001A90848FFF79AFA012240F233
:1021200025510548FFF76EFA01210348FFF734FAFD
:1021300006B010BD0008014000380140000000005A
:10214000000000000000000000000000000000008F
:1021500000001FCC000C0000000000000000080080
:10216000300060000800300060000000022003FC26
:102170001E20022003FC1E200220000000000E187A
:1021800011043FFF10840C78000000000F00108441
:102190000F3800C0077818840078000000780F849A
:1021A00010C411240E9800E40084000808006800A0
:1021B00070000000000000000000000000000000AF
:1021C000000007E018182004400200000000400250
:1021D0002004181807E00000000000000240024040
:1021E00001800FF00180024002400000008000806A
:1021F00000800FF800800080008000000001000DCA
:10220000000E000000000000000000000000008040
:102210000080008000800080008000800000000CB2
:10222000000C00000000000000000000000000069C
:10223000001800600180060018002000000007F070
:10224000080810041004080807F000000000080443
:1022500008041FFC000400040000000000000E0C35
:1022600010141024104411840E0C000000000C18EF
:1022700010041104110412880C700000000000E02A
:102280000320042408241FFC0024000000001F98E1
:10229000108411041104108810700000000007F071
:1022A00008881104110418880070000000001C0048
:1022B000100010FC13001C001000000000000E387D
:1022C00011441084108411440E38000000000700EF
:1022D000088C10441044088807F00000000000003B
:1022E0000000030C030C00000000000000000000D0
:1022F0000001010600000000000000000000008056
:1023000001400220041008081004000002200220EE
:1023100002200220022002200220000000001004FF
:1023200008080410022001400080000000000E0098
:102330001200100C106C10800F00000003E00C184D
:1023400013E4142417C4082807D000000004003C3C
:1023500003C41C40074000E4001C000410041FFCE0
:102360001104110411040E880070000003E00C1821
:1023700010041004100410081C10000010041FFCAE
:10238000100410041004080807F0000010041FFCDB
:102390001104110417C410040818000010041FFCD5
:1023A0001104110017C010000800000003E00C1811
:1023B0001004100410441C780040000010041FFC9E
:1023C00010840080008010841FFC100400001004A2
:1023D00010041FFC100410040000000000030001A2
:1023E000100110011FFE10001000000010041FFC5F
:1023F000110403801464181C1004000010041FFC56
:102400001004000400040004000C000010041FFC71
:102410001F0000FC1F001FFC1004000010041FFC24
:102420000C04030000E010181FFC100007F008085F
:10243000100410041004080807F0000010041FFC2A
:1024400010841080108010800F00000007F0081822
:1024500010241024101C080A07F2000010041FFCAE
:102460001104110011C011300E0C000400000E1CEC
:1024700011041084108410441C380000180010004F
:1024800010041FFC100410001800000010001FF8BA
:1024900010040004000410041FF8100010001E00B7
:1024A00011E0001C007013801C0010001FC0103CC5
:1024B00000E01F0000E0103C1FC000001004180CDA
:1024C000163401C001C01634180C100410001C0092
:1024D000130400FC13041C00100000000804101C6E
:1024E0001064108413041C04101800000000000085
:1024F00000007FFE40024002400200000000300069
:102500000C0003800060001C00030000000040027B
:10251000400240027FFE00000000000000000000BA
:1025200020004000400040002000000000010001A9
:102530000001000100010001000100010000400055
:102540004000200000000000000000000000009893
:10255000012401440144014400FC000410001FFC5C
:102560000088010401040088007000000000007071
:1025700000880104010401040088000000000070CC
:1025800000880104010411081FFC0004000000F889
:10259000014401440144014400C80000000001045A
:1025A00001040FFC1104110411001800000000D6F2
:1025B00001290129012901C90106000010041FFC9D
:1025C000008401000100010400FC0004000001047B
:1025D000190419FC000400040000000000000003BE
:1025E00000010101190119FE0000000010041FFC88
:1025F0000024004001B4010C01040000000010049C
:1026000010041FFC0004000400000000010401FC91
:102610000104010001FC0104010000FC010401FCB3
:10262000008401000100010400FC0004000000F827
:10263000010401040104010400F80000010101FF8C
:102640000085010401040088007000000000007093
:10265000008801040104010501FF000101040104D7
:1026600001FC00840104010001800000000000CC96
:10267000012401240124012401980000000001002C
:10268000010007F80104010400000000010001F846
:10269000000400040004010801FC000401000180A2
:1026A0000170000C001001600180010001F0010CBC
:1026B000003001C00030010C01F0010000000104F5
:1026C000018C00740170018C010400000101018182
:1026D0000171000E001801600180010000000184FA
:1026E000010C013401440184010C000000000000D1
:1026F0000000000001003EFC40024002000000001B
:1027000000000000FFFF0000000000000000400289
:1027100040023EFC010000000000000000006000DC
:1027200080008000400040002000200000030306DD
:1027300001040602050003051F1C1F1E1F1E1F1F8C
:102740001E1F1E1F6427000800000020500000000C
:102750006C010008B427000850000020E8080000C1
:1027600088010008000000000102030401020304C4
:10277000060708090204060800A24A040000000037
:102780000000000001020304060708090100000020
:102790000000000000000000000000000000000039
:1027A00000000000000000006400000000000000C5
:0427B0000000000025
:040000050800020DE0
:00000001FF
